{
  "contractName": "Market",
  "abi": [
    {
      "anonymous": false,
      "inputs": [
        {
          "indexed": false,
          "internalType": "address",
          "name": "owner",
          "type": "address"
        },
        {
          "indexed": true,
          "internalType": "uint256",
          "name": "id",
          "type": "uint256"
        },
        {
          "indexed": true,
          "internalType": "uint256",
          "name": "date",
          "type": "uint256"
        },
        {
          "indexed": false,
          "internalType": "uint256",
          "name": "price",
          "type": "uint256"
        },
        {
          "indexed": true,
          "internalType": "bool",
          "name": "sell",
          "type": "bool"
        }
      ],
      "name": "eventStuff",
      "type": "event"
    },
    {
      "constant": false,
      "inputs": [
        {
          "internalType": "uint256",
          "name": "id",
          "type": "uint256"
        },
        {
          "internalType": "uint256",
          "name": "_price",
          "type": "uint256"
        }
      ],
      "name": "registedNewStuff",
      "outputs": [],
      "payable": false,
      "stateMutability": "nonpayable",
      "type": "function"
    },
    {
      "constant": false,
      "inputs": [
        {
          "internalType": "uint256",
          "name": "id",
          "type": "uint256"
        },
        {
          "internalType": "uint256",
          "name": "_price",
          "type": "uint256"
        }
      ],
      "name": "registedMyStuff",
      "outputs": [],
      "payable": false,
      "stateMutability": "nonpayable",
      "type": "function"
    },
    {
      "constant": false,
      "inputs": [
        {
          "internalType": "uint256",
          "name": "id",
          "type": "uint256"
        },
        {
          "internalType": "uint256",
          "name": "_price",
          "type": "uint256"
        }
      ],
      "name": "unregistedMyStuff",
      "outputs": [],
      "payable": false,
      "stateMutability": "nonpayable",
      "type": "function"
    },
    {
      "constant": false,
      "inputs": [
        {
          "internalType": "uint256",
          "name": "id",
          "type": "uint256"
        },
        {
          "internalType": "uint256",
          "name": "_price",
          "type": "uint256"
        }
      ],
      "name": "buyStuff",
      "outputs": [],
      "payable": true,
      "stateMutability": "payable",
      "type": "function"
    }
  ],
  "bytecode": "0x608060405234801561001057600080fd5b5061017d806100206000396000f3fe60806040526004361061003f5760003560e01c806307e0607e146100445780632d785cdd146100765780639ce3d3f814610076578063c61f6805146100a6575b600080fd5b34801561005057600080fd5b506100746004803603604081101561006757600080fd5b50803590602001356100bc565b005b34801561008257600080fd5b506100746004803603604081101561009957600080fd5b5080359060200135610102565b6100746004803603604081101561006757600080fd5b60408051338152602081018390528151600092429286927f7137a41cda17541ffc6d9faaa251ed264d72210215d09218c3ef3950d933022b929181900390910190a45050565b60408051338152602081018390528151600192429286927f7137a41cda17541ffc6d9faaa251ed264d72210215d09218c3ef3950d933022b929181900390910190a4505056fea265627a7a72315820b1804c6a0dc9367269f72c43d1d45a19103a780f405c058c15afd51df2baa21964736f6c63430005100032",
  "source": "// SPDX-License-Identifier: MIT\npragma solidity ^0.5.0;\n\ncontract Market {\n    event eventStuff(\n        address owner,\n        uint256 indexed id,\n        uint256 indexed date,\n        uint256 price,\n        bool indexed sell\n    );\n\n    // Create a new event of the item.\n    function registedNewStuff(uint256 id, uint256 _price) public {\n        emit eventStuff(msg.sender, id, now, _price, true);\n    }\n\n    // Craete the new event of the item that set sell to true.\n    function registedMyStuff(uint256 id, uint256 _price) external {\n        emit eventStuff(msg.sender, id, now, _price, true);\n    }\n\n    // Craete the new event of the item that set sell to true.\n    function unregistedMyStuff(uint256 id, uint256 _price) external {\n        emit eventStuff(msg.sender, id, now, _price, false);\n    }\n\n    // Get the last event of that item to pay to its owner\n    // before create a new event.\n    function buyStuff(uint256 id, uint256 _price) external payable {\n        emit eventStuff(msg.sender, id, now, _price, false);\n    }\n}\n",
  "sourcePath": "C:\\Users\\nutta\\Desktop\\MarketOnChain\\contracts\\Market.sol",
  "compiler": {
    "name": "solc",
    "version": "0.5.16+commit.9c3226ce.Emscripten.clang"
  },
  "schemaVersion": "3.4.3",
  "updatedAt": "2021-10-24T15:41:44.550Z",
  "networkType": "ethereum",
  "devdoc": {
    "methods": {}
  },
  "userdoc": {
    "methods": {}
  }
}